:040000007FEF2FF06F
:105EFE000001A4EF2FF080808080808080808080E1
:105F0E008080808080808080808080908090809053
:105F1E008090809080901200808080808080808031
:105F2E0080808090809080908090809080908090F3
:105F3E0080908090809080901200000E926E000EE5
:105F4E00936E000E946E8068816882680F0EC16E2B
:105F5E00CD92CD96000E026E000E016E02BE06D0E0
:105F6E00025037E10C0E015CD8B033D093EC2FF019
:105F7E0093EC2FF093EC2FF093EC2FF093EC2FF09B
:105F8E0093EC2FF093EC2FF093EC2FF082EC2FF09C
:105F9E0093EC2FF082EC2FF093EC2FF082EC2FF09D
:105FAE0093EC2FF082EC2FF093EC2FF082EC2FF08D
:105FBE0093EC2FF082EC2FF093EC2FF082EC2FF07D
:105FCE0093EC2FF082EC2FF093EC2FF0014A022A83
:105FDE00C5D7000E046E000E036E04BE06D0E80E8A
:105FEE00035C030E0458D8B0B5D78090034A042A38
:025FFE00F4D7D6
:020000040020DA
:08000000FFFFFFFFFFFFFFFF00
:020000040030CA
:0E000000040E1F1EFF8181FF0FC00FE00F4096
:00000001FF
