:04000000FCEF2AF0F7
:105524008080808080808080808080808080808077
:105534008080808080908090809080908090809007
:105544001200808080808080808080808090809025
:1055540080908090809080908090809080908090C7
:105564008090120000000100000001000000010012
:105574000000010000000100000001000000010023
:105584000000010000000100000001000000010013
:105594000000010000000100000001000000010003
:1055A40000000100000001000000010000000100F3
:1055B40000000100000001000000010000000100E3
:1055C40000000100000001000000010000000100D3
:1055D40000000100000001000000010000000100C3
:1055E40000000100000001000000010000000100B3
:1055F40000000100680EF66E550EF76E000EF86E90
:1056040001EEB8F010EE30F00900F5CFEEFFE550F2
:10561400E150FAE1980EF66E550EF76E000EF86E34
:1056240000EE60F010EE30F00900F5CFEEFFE5502B
:10563400E150FAE1C80EF66E550EF76E000EF86EE4
:1056440000EE01F010EE30F00900F5CFEEFFE5506A
:10565400E150FAE100012FEF2BF0000E926E000EE4
:10566400936E000E946E8068816882680F0EC16E1E
:10567400CD92CD9621EEB8F011EE00F02F0EDBCFD7
:10568400E3FFE806FCE220EE01F011EE30F02F0E0D
:10569400DBCFE3FFE806FCE220EE60F011EE60F001
:1056A4002F0EDBCFE3FFE806FCE2000E0101A66F3C
:1056B400FF0EA76F000EA86F000EA96F000E010168
:1056C400AA6F000EAB6FFF0EAC6F000EAD6FFF0E36
:1056D4000101AE6F000EAF6F000EB06F000EB16F20
:1056E400010E0101A627000EA723A823A923010E5A
:1056F4000101AA27000EAB23AC23AD23010E010147
:10570400AE27000EAF23B023B1230101A9BF17D0E8
:105714000101A9510BE1200E0101A65D1F0E01013B
:10572400A7591F0E0101A859D8A009D0000E0101E4
:10573400A66FFF0EA76F000EA86F000EA96F0101E0
:10574400ADBF17D00101AD510BE1200E0101AA5DDF
:105754001F0E0101AB591F0E0101AC59D8A009D08D
:10576400000E0101AA6F000EAB6FFF0EAC6F000EAE
:10577400AD6F0101B1BF17D00101B1510BE1200E92
:105784000101AE5D1F0E0101AF591F0E0101B05999
:10579400D8A009D0FF0E0101AE6F000EAF6F000E4E
:1057A400B06F000EB16FA6C196F1A7C197F1A8C161
:1057B40098F1A9C199F1000E0101B36F000EB26F07
:1057C4000101B3BF08D00101B3513AE1180E010140
:1057D400B25DD8B035D0010E010196150101906F6C
:1057E4000101916BD8900101B235D96E0101B33535
:1057F400DA6E000ED926010EDA2290C1DEFF91C1C5
:10580400DDFF96C131F097C132F098C133F099C1F0
:1058140034F03434343233323232313231C096F1EE
:1058240032C097F133C098F134C099F10101B24B01
:10583400B32B0101B3BFCFD70101B35101E1C6D7E7
:10584400AAC19AF1ABC19BF1ACC19CF1ADC19DF170
:10585400000E0101B56F000EB46F0101B5BF08D091
:105864000101B5513AE1180E0101B45DD8B035D04B
:10587400010E01019A150101926F0101936BD890F9
:105884000101B435D96E0101B535DA6E300ED92671
:10589400010EDA2292C1DEFF93C1DDFF9AC131F01D
:1058A4009BC132F09CC133F09DC134F034343432A6
:1058B40033323232313231C09AF132C09BF133C0CB
:1058C4009CF134C09DF10101B44BB52B0101B5BF6E
:1058D400CFD70101B55101E1C6D7AEC19EF1AFC129
:1058E4009FF1B0C1A0F1B1C1A1F1000E0101B76FE8
:1058F400000EB66F0101B7BF08D00101B75134E102
:10590400180E0101B65DD8B02FD0010E01019E150D
:105914000101946F0101956BD8900101B635D96EE0
:105924000101B735DA6E600ED926010EDA2294C170
:10593400DEFF95C1DDFF9EC131F09FC132F0A0C1F1
:1059440033F0A1C134F034343432333232323132B0
:1059540031C09EF132C09FF133C0A0F134C0A1F137
:105964000101B64BB72BC6D7000E0101A36F000E81
:10597400A26F0101A3BF0AD00101A35106E1040EE5
:105984000101A25DD8B024D301D022D3010100517A
:1059940001010111D8A403D0A3EC2AF002D092ECA7
:1059A4002AF00101025101010311D8A403D0A3EC90
:1059B4002AF002D092EC2AF00101045101010511F0
:1059C400D8A403D0A3EC2AF002D092EC2AF001016F
:1059D400065101010711D8A403D0A3EC2AF002D088
:1059E40092EC2AF00101085101010911D8A403D055
:1059F400A3EC2AF002D092EC2AF001010A51010131
:105A04000B11D8A403D0A3EC2AF002D092EC2AF014
:105A140001010C5101010D11D8A403D0A3EC2AF00B
:105A240002D092EC2AF001010E5101010F11D8A409
:105A340003D0A3EC2AF002D092EC2AF00101105119
:105A440001011111D8A403D0A3EC2AF002D092ECE6
:105A54002AF00101125101011311D8A403D0A3ECBF
:105A64002AF002D092EC2AF001011451010115111F
:105A7400D8A403D0A3EC2AF002D092EC2AF00101BE
:105A8400165101011711D8A403D0A3EC2AF002D0B7
:105A940092EC2AF00101185101011911D8A403D084
:105AA400A3EC2AF002D092EC2AF001011A51010170
:105AB4001B11D8A403D0A3EC2AF002D092EC2AF054
:105AC40001011C5101011D11D8A403D0A3EC2AF03B
:105AD40002D092EC2AF001011E5101011F11D8A439
:105AE40003D0A3EC2AF002D092EC2AF00101205159
:105AF40001012111D8A403D0A3EC2AF002D092EC26
:105B04002AF00101225101012311D8A403D0A3ECEE
:105B14002AF002D092EC2AF001012451010125114E
:105B2400D8A403D0A3EC2AF002D092EC2AF001010D
:105B3400265101012711D8A403D0A3EC2AF002D0E6
:105B440092EC2AF00101285101012911D8A403D0B3
:105B5400A3EC2AF002D092EC2AF001012A510101AF
:105B64002B11D8A403D0A3EC2AF002D092EC2AF093
:105B740001012C5101012D11D8A403D0A3EC2AF06A
:105B840002D092EC2AF001012E5101012F11D8A468
:105B940003D0A3EC2AF002D092EC2AF00101305198
:105BA40001013111D8A403D0A3EC2AF002D092EC65
:105BB4002AF00101325101013311D8A403D0A3EC1E
:105BC4002AF002D092EC2AF001013451010135117E
:105BD400D8A403D0A3EC2AF002D092EC2AF001015D
:105BE400365101013711D8A403D0A3EC2AF002D016
:105BF40092EC2AF00101385101013911D8A403D0E3
:105C0400A3EC2AF002D092EC2AF001013A510101EE
:105C14003B11D8A403D0A3EC2AF002D092EC2AF0D2
:105C240001013C5101013D11D8A403D0A3EC2AF099
:105C340002D092EC2AF001013E5101013F11D8A497
:105C440003D0A3EC2AF002D092EC2AF001014051D7
:105C540001014111D8A403D0A3EC2AF002D092ECA4
:105C64002AF00101425101014311D8A403D0A3EC4D
:105C74002AF002D092EC2AF00101445101014511AD
:105C8400D8A403D0A3EC2AF002D092EC2AF00101AC
:105C9400465101014711D8A403D0A3EC2AF002D045
:105CA40092EC2AF00101485101014911D8A403D012
:105CB400A3EC2AF002D092EC2AF001014A5101012E
:105CC4004B11D8A403D0A3EC2AF002D092EC2AF012
:105CD40001014C5101014D11D8A403D0A3EC2AF0C9
:105CE40002D092EC2AF001014E5101014F11D8A4C7
:105CF40003D0A3EC2AF002D092EC2AF00101505117
:105D040001015111D8A403D0A3EC2AF002D092ECE3
:105D14002AF00101525101015311D8A403D0A3EC7C
:105D24002AF002D092EC2AF00101545101015511DC
:105D3400D8A403D0A3EC2AF002D092EC2AF00101FB
:105D4400565101015711D8A403D0A3EC2AF002D074
:105D540092EC2AF00101585101015911D8A403D041
:105D6400A3EC2AF002D092EC2AF001015A5101016D
:105D74005B11D8A403D0A3EC2AF002D092EC2AF051
:105D840001015C5101015D11D8A403D0A3EC2AF0F8
:105D940002D092EC2AF001015E5101015F11D8A4F6
:105DA40003D0A3EC2AF002D092EC2AF00101605156
:105DB40001016111D8A403D0A3EC2AF002D092EC23
:105DC4002AF00101625101016311D8A403D0A3ECAC
:105DD4002AF002D092EC2AF001016451010165110C
:105DE400D8A403D0A3EC2AF002D092EC2AF001014B
:105DF400665101016711D8A403D0A3EC2AF002D0A4
:105E040092EC2AF00101685101016911D8A403D070
:105E1400A3EC2AF002D092EC2AF001016A510101AC
:105E24006B11D8A403D0A3EC2AF002D092EC2AF090
:105E340001016C5101016D11D8A403D0A3EC2AF027
:105E440002D092EC2AF001016E5101016F11D8A425
:105E540003D0A3EC2AF002D092EC2AF00101705195
:105E640001017111D8A403D0A3EC2AF002D092EC62
:105E74002AF00101725101017311D8A403D0A3ECDB
:105E84002AF002D092EC2AF001017451010175113B
:105E9400D8A403D0A3EC2AF002D092EC2AF001019A
:105EA400765101017711D8A403D0A3EC2AF002D0D3
:105EB40092EC2AF00101785101017911D8A403D0A0
:105EC400A3EC2AF002D092EC2AF001017A510101EC
:105ED4007B11D8A403D0A3EC2AF002D092EC2AF0D0
:105EE40001017C5101017D11D8A403D0A3EC2AF057
:105EF40002D092EC2AF001017E5101017F11D8A455
:105F040003D0A3EC2AF002D092EC2AF001018051D4
:105F140001018111D8A403D0A3EC2AF002D092ECA1
:105F24002AF00101825101018311D8A403D0A3EC0A
:105F34002AF002D092EC2AF001018451010185116A
:105F4400D8A403D0A3EC2AF002D092EC2AF00101E9
:105F5400865101018711D8A403D0A3EC2AF002D002
:105F640092EC2AF00101885101018911D8A403D0CF
:105F7400A3EC2AF002D092EC2AF001018A5101012B
:105F84008B11D8A403D0A3EC2AF002D092EC2AF00F
:105F940001018C5101018D11D8A403D0A3EC2AF086
:105FA40002D092EC2AF001018E5101018F11D8A484
:105FB40003D0A3EC2AF002D092EC2AF00101A24B08
:105FC400A32B0101A3BFE2D40101A35101E1D7D462
:105FD400000E0101A56F000EA46F0101A5BF09D039
:105FE400E80E0101A45D030E0101A559D8B072EFBA
:0C5FF4002BF080900101A44BA52BEFD7EF
:020000040020DA
:08000000FFFFFFFFFFFFFFFF00
:020000040030CA
:0E000000040E1F1EFF8181FF0FC00FE00F4096
:00000001FF
