:0400000090EF2DF060
:105B20000001B5EF2DF080808080808080808080B3
:105B30008080808080808080808080908090809035
:105B40008090809080901200808080808080808013
:105B500080808090809080908090809080908090D5
:105B600080908090809080901200000E926E000EC7
:105B7000936E000E946E8068816882680F0EC16E0D
:105B8000CD92CD96000E0101C16F2C0EC06F000E9C
:105B90000101BB6F000EBA6F0101C0510101BA5D76
:105BA0000101BB51800A016E0101C151800A0158F7
:105BB000D8B01AD0000E016E010E026ED89001010D
:105BC000BA35D96E0101BB35DA6ED890D936DA36DE
:105BD0000150D9260250DA22DE6ADE6ADE6ADD6A08
:105BE0000101BA4BBB2BD8D7000E0101BF6F000ECD
:105BF000BE6F0A0E0101B46F000EB56F000EB66FD6
:105C0000000EB76FB4C1B0F1B5C1B1F1B6C1B2F118
:105C1000B7C1B3F1B0C101F0B1C102F0B2C103F03C
:105C2000B3C104F00101B007000EB15BB25BB35B1E
:105C300004BE07D004500310021038E10104D8B0AC
:105C400035D0000E016E010E026ED8900101BE35F6
:105C5000D96E0101BF35DA6ED890D936DA360150E7
:105C6000D9260250DA22DE6ADE6ADE6ADD6AB4C153
:105C7000B0F1B5C1B1F1B6C1B2F1B7C1B3F1010133
:105C8000BE4BBF2B0101C0510101BE5D0101BF51DF
:105C9000800A016E0101C151800A0158D8A020D0AC
:105CA000000E0101BF6F000EBE6F1AD0000E016E14
:105CB000010E026ED8900101BE35D96E0101BF35CB
:105CC000DA6ED890D936DA360150D9260250DA2267
:105CD0001F0EDE6E1F0EDE6E1F0EDE6E000EDD6E00
:105CE000000E0101BD6F000EBC6F0101C05101012A
:105CF000BC5D0101BD51800A016E0101C151800AE4
:105D00000158D8B068D1000E016E010E026ED89015
:105D10000101BC35D96E0101BD35DA6ED890D93696
:105D2000DA360150D9260250DA22DECFC2F1DECFB8
:105D3000C3F1DECFC4F1DECFC5F10101C2B103D0A2
:105D4000A4EC2DF002D093EC2DF00101C535C53344
:105D5000C433C333C2330101C2B103D0A4EC2DF06C
:105D600002D093EC2DF00101C535C533C433C333E4
:105D7000C2330101C2B103D0A4EC2DF002D093ECE8
:105D80002DF00101C535C533C433C333C23301011E
:105D9000C2B103D0A4EC2DF002D093EC2DF00101A0
:105DA000C535C533C433C333C2330101C2B103D0D7
:105DB000A4EC2DF002D093EC2DF00101C535C533D4
:105DC000C433C333C2330101C2B103D0A4EC2DF0FC
:105DD00002D093EC2DF00101C535C533C433C33374
:105DE000C2330101C2B103D0A4EC2DF002D093EC78
:105DF0002DF00101C535C533C433C333C2330101AE
:105E0000C2B103D0A4EC2DF002D093EC2DF001012F
:105E1000C535C533C433C333C2330101C2B103D066
:105E2000A4EC2DF002D093EC2DF00101C535C53363
:105E3000C433C333C2330101C2B103D0A4EC2DF08B
:105E400002D093EC2DF00101C535C533C433C33303
:105E5000C2330101C2B103D0A4EC2DF002D093EC07
:105E60002DF00101C535C533C433C333C23301013D
:105E7000C2B103D0A4EC2DF002D093EC2DF00101BF
:105E8000C535C533C433C333C2330101C2B103D0F6
:105E9000A4EC2DF002D093EC2DF00101C535C533F3
:105EA000C433C333C2330101C2B103D0A4EC2DF01B
:105EB00002D093EC2DF00101C535C533C433C33393
:105EC000C2330101C2B103D0A4EC2DF002D093EC97
:105ED0002DF00101C535C533C433C333C2330101CD
:105EE000C2B103D0A4EC2DF002D093EC2DF001014F
:105EF000C535C533C433C333C2330101C2B103D086
:105F0000A4EC2DF002D093EC2DF00101C535C53382
:105F1000C433C333C2330101C2B103D0A4EC2DF0AA
:105F200002D093EC2DF00101C535C533C433C33322
:105F3000C2330101C2B103D0A4EC2DF002D093EC26
:105F40002DF00101C535C533C433C333C23301015C
:105F5000C2B103D0A4EC2DF002D093EC2DF00101DE
:105F6000C535C533C433C333C2330101C2B103D015
:105F7000A4EC2DF002D093EC2DF00101C535C53312
:105F8000C433C333C2330101C2B103D0A4EC2DF03A
:105F900002D093EC2DF00101C535C533C433C333B2
:105FA000C2330101C2B103D0A4EC2DF002D093ECB6
:105FB0002DF00101C535C533C433C333C2330101EC
:105FC000C2B103D0A4EC2DF002D093EC2DF001016E
:105FD000BC4BBD2B8AD6000E0101B96F000EB86F05
:105FE0000101B9BF08D0E80E0101B85D030E01013F
:105FF000B959D8B00FD680900101B84BB92BF0D762
:020000040020DA
:08000000FFFFFFFFFFFFFFFF00
:020000040030CA
:0E000000040E1F1EFF8181FF0FC00FE00F4096
:00000001FF
