:0400000094EF2DF05C
:105AE40080808080808080808080808080808080B2
:105AF4008080808080908090809080908090809042
:105B0400120080808080808080808080809080905F
:105B14008090809080908090809080908090809001
:105B2400809012004E0EF66E5B0EF76E000EF86E4D
:105B340000EE60F010EE30F00900F5CFEEFFE55016
:105B4400E150FAE10001BFEF2DF01F000000001F3B
:105B5400000000001F001F0000001F0000001F00C5
:105B640000001F0000001F0000001F0000001F00B5
:105B740000001F0000001F000000000E926E000EC7
:105B8400936E000E946E8068816882680F0EC16EF9
:105B9400CD92CD9620EE60F010EE07F02F0EDBCF05
:105BA400E3FFE806FCE2000E3A6E000E396E3ABEE0
:105BB40006D03A501BE10C0E395CD8B017D0070E52
:105BC400016E000E026ED8903934D96E3A34DA6E12
:105BD400D890D936DA360150D9260250DA22DE6A54
:105BE400DE6ADE6ADD6A394A3A2AE1D7010E076EB7
:105BF400FF0E086E000E096E000E0A6E000E3E6E59
:105C0400000E3D6E3EBE08D03E5005E10C0E3D5CDC
:105C1400D8B09CD001D09AD0070E016E000E026E4F
:105C2400D8903D34D96E3E34DA6ED890D936DA360F
:105C34000150D9260250DA22030EDBBE21D0030E16
:105C4400DB5009E1020EDB5006E1010EDB5003E1FB
:105C5400DE04D8A015D0070E016E000E026ED89097
:105C64003D34D96E3E34DA6ED890D936DA360150E6
:105C7400D9260250DA22DE2A000EDE22DE22DE22BD
:105C8400070E016E000E026ED8903D34D96E3E347C
:105C9400DA6ED890D936DA360150D9260250DA2293
:105CA400030EDBBE4CD0030EDB5008E1020EDB50CA
:105CB40005E1DE28FF0EDE58D8A041D0070E016EA4
:105CC400000E026ED8903D34D96E3E34DA6ED89010
:105CD400D936DA360150D9260250DA22DE6ADE6A73
:105CE400DE6ADD6A3EBE06D03E5021E10B0E3D5C0D
:105CF400D8B01DD03DC001F03EC002F0D8900136AE
:105D04000236D89001360236040E0126000E022215
:105D1400070E0124D96E000E0220DA6E010EDE6E2B
:105D2400FF0EDE6E000EDE6E000EDD6E08D0010E7C
:105D3400076EFF0E086E000E096E000E0A6E3D4AD5
:105D44003E2A3EBE69D73E5001E160D7000E3C6E4C
:105D5400000E3B6E3CBE08D03C5005E10C0E3B5C93
:105D6400D8B03CD101D03AD1070E016E000E026EBC
:105D7400D8903B34D96E3C34DA6ED890D936DA36C2
:105D84000150D9260250DA22DECF3FF0DECF40F0B8
:105D9400DECF41F0DECF42F03FB003D083EC2DF0F4
:105DA40002D072EC2DF042344232413240323F3262
:105DB4003FB003D083EC2DF002D072EC2DF04234CE
:105DC4004232413240323F323FB003D083EC2DF0B7
:105DD40002D072EC2DF042344232413240323F3232
:105DE4003FB003D083EC2DF002D072EC2DF042349E
:105DF4004232413240323F323FB003D083EC2DF087
:105E040002D072EC2DF042344232413240323F3201
:105E14003FB003D083EC2DF002D072EC2DF042346D
:105E24004232413240323F323FB003D083EC2DF056
:105E340002D072EC2DF042344232413240323F32D1
:105E44003FB003D083EC2DF002D072EC2DF042343D
:105E54004232413240323F323FB003D083EC2DF026
:105E640002D072EC2DF042344232413240323F32A1
:105E74003FB003D083EC2DF002D072EC2DF042340D
:105E84004232413240323F323FB003D083EC2DF0F6
:105E940002D072EC2DF042344232413240323F3271
:105EA4003FB003D083EC2DF002D072EC2DF04234DD
:105EB4004232413240323F323FB003D083EC2DF0C6
:105EC40002D072EC2DF042344232413240323F3241
:105ED4003FB003D083EC2DF002D072EC2DF04234AD
:105EE4004232413240323F323FB003D083EC2DF096
:105EF40002D072EC2DF042344232413240323F3211
:105F04003FB003D083EC2DF002D072EC2DF042347C
:105F14004232413240323F323FB003D083EC2DF065
:105F240002D072EC2DF042344232413240323F32E0
:105F34003FB003D083EC2DF002D072EC2DF042344C
:105F44004232413240323F323FB003D083EC2DF035
:105F540002D072EC2DF042344232413240323F32B0
:105F64003FB003D083EC2DF002D072EC2DF042341C
:105F74004232413240323F323FB003D083EC2DF005
:105F840002D072EC2DF042344232413240323F3280
:105F94003FB003D083EC2DF002D072EC2DF04234EC
:105FA4004232413240323F323FB003D083EC2DF0D5
:105FB40002D072EC2DF042344232413240323F3250
:105FC4003FB003D083EC2DF002D072EC2DF03B4AAD
:105FD4003C2A3CBEC9D63C5001E1C0D6000E386E06
:105FE400000E376E38BE06D0E80E375C030E385804
:0C5FF400D8B004D68090374A382AF4D781
:020000040020DA
:08000000FFFFFFFFFFFFFFFF00
:020000040030CA
:0E000000040E1F1EFF8181FF0FC00FE00F4096
:00000001FF
