:040000005FEF2BF093
:1056BE00000162EF2BF0000E926E000E936E000E44
:1056CE00946E8068816882680F0EC16ECD92CD9601
:1056DE0080808080808080808080808080808080BC
:1056EE00808080808090809080908090809080904C
:1056FE00808080808080808080808090809080906C
:10570E00809080908090809080908090809080900B
:10571E00808080808080808080808080808080807B
:10572E00808080808090809080908090809080900B
:10573E00808080808080808080808090809080902B
:10574E0080908090809080908090809080908090CB
:10575E00808080808080808080808080808080803B
:10576E0080808080809080908090809080908090CB
:10577E0080808080808080808080809080908090EB
:10578E00809080908090809080908090809080908B
:10579E0080808080808080808080808080808080FB
:1057AE00808080808090809080908090809080908B
:1057BE0080808080808080808080809080908090AB
:1057CE00809080908090809080908090809080904B
:1057DE0080808080808080808080808080808080BB
:1057EE00808080808090809080908090809080904B
:1057FE00808080808080808080808090809080906B
:10580E00809080908090809080908090809080900A
:10581E00808080808080808080808080808080807A
:10582E00808080808090809080908090809080900A
:10583E00808080808080808080808090809080902A
:10584E0080908090809080908090809080908090CA
:10585E00808080808080808080808080808080803A
:10586E0080808080809080908090809080908090CA
:10587E0080808080808080808080809080908090EA
:10588E00809080908090809080908090809080908A
:10589E0080808080808080808080808080808080FA
:1058AE00808080808090809080908090809080908A
:1058BE0080808080808080808080809080908090AA
:1058CE00809080908090809080908090809080904A
:1058DE0080808080808080808080808080808080BA
:1058EE00808080808090809080908090809080904A
:1058FE00808080808080808080808090809080906A
:10590E008090809080908090809080908090809009
:10591E008080808080808080808080808080808079
:10592E008080808080908090809080908090809009
:10593E008080808080808080808080908090809029
:10594E0080908090809080908090809080908090C9
:10595E008080808080808080808080808080808039
:10596E0080808080809080908090809080908090C9
:10597E0080808080808080808080809080908090E9
:10598E008090809080908090809080908090809089
:10599E0080808080808080808080808080808080F9
:1059AE008080808080908090809080908090809089
:1059BE0080808080808080808080809080908090A9
:1059CE008090809080908090809080908090809049
:1059DE0080808080808080808080808080808080B9
:1059EE008080808080908090809080908090809049
:1059FE008080808080808080808080908090809069
:105A0E008090809080908090809080908090809008
:105A1E008080808080808080808080808080808078
:105A2E008080808080908090809080908090809008
:105A3E008080808080808080808080908090809028
:105A4E0080908090809080908090809080908090C8
:105A5E008080808080808080808080808080808038
:105A6E0080808080809080908090809080908090C8
:105A7E0080808080808080808080809080908090E8
:105A8E008090809080908090809080908090809088
:105A9E0080808080808080808080808080808080F8
:105AAE008080808080908090809080908090809088
:105ABE0080808080808080808080809080908090A8
:105ACE008090809080908090809080908090809048
:105ADE0080808080808080808080808080808080B8
:105AEE008080808080908090809080908090809048
:105AFE008080808080808080808080908090809068
:105B0E008090809080908090809080908090809007
:105B1E008080808080808080808080808080808077
:105B2E008080808080908090809080908090809007
:105B3E008080808080808080808080908090809027
:105B4E0080908090809080908090809080908090C7
:105B5E008080808080808080808080808080808037
:105B6E0080808080809080908090809080908090C7
:105B7E0080808080808080808080809080908090E7
:105B8E008090809080908090809080908090809087
:105B9E0080808080808080808080808080808080F7
:105BAE008080808080908090809080908090809087
:105BBE0080808080808080808080809080908090A7
:105BCE008090809080908090809080908090809047
:105BDE0080808080808080808080808080808080B7
:105BEE008080808080908090809080908090809047
:105BFE008080808080808080808080908090809067
:105C0E008090809080908090809080908090809006
:105C1E008080808080808080808080808080808076
:105C2E008080808080908090809080908090809006
:105C3E008080808080808080808080908090809026
:105C4E0080908090809080908090809080908090C6
:105C5E008080808080808080808080808080808036
:105C6E0080808080809080908090809080908090C6
:105C7E0080808080808080808080809080908090E6
:105C8E008090809080908090809080908090809086
:105C9E0080808080808080808080808080808080F6
:105CAE008080808080908090809080908090809086
:105CBE0080808080808080808080809080908090A6
:105CCE008090809080908090809080908090809046
:105CDE0080808080808080808080808080808080B6
:105CEE008080808080908090809080908090809046
:105CFE008080808080808080808080908090809066
:105D0E008090809080908090809080908090809005
:105D1E008080808080808080808080808080808075
:105D2E008080808080908090809080908090809005
:105D3E008080808080808080808080908090809025
:105D4E0080908090809080908090809080908090C5
:105D5E008080808080808080808080808080808035
:105D6E0080808080809080908090809080908090C5
:105D7E0080808080808080808080809080908090E5
:105D8E008090809080908090809080908090809085
:105D9E0080808080808080808080808080808080F5
:105DAE008080808080908090809080908090809085
:105DBE0080808080808080808080809080908090A5
:105DCE008090809080908090809080908090809045
:105DDE0080808080808080808080808080808080B5
:105DEE008080808080908090809080908090809045
:105DFE008080808080808080808080908090809065
:105E0E008090809080908090809080908090809004
:105E1E008080808080808080808080808080808074
:105E2E008080808080908090809080908090809004
:105E3E008080808080808080808080908090809024
:105E4E0080908090809080908090809080908090C4
:105E5E008080808080808080808080808080808034
:105E6E0080808080809080908090809080908090C4
:105E7E0080808080808080808080809080908090E4
:105E8E008090809080908090809080908090809084
:105E9E0080808080808080808080808080808080F4
:105EAE008080808080908090809080908090809084
:105EBE0080808080808080808080809080908090A4
:105ECE008090809080908090809080908090809044
:105EDE0080808080808080808080808080808080B4
:105EEE008080808080908090809080908090809044
:105EFE008080808080808080808080908090809064
:105F0E008090809080908090809080908090809003
:105F1E008080808080808080808080808080808073
:105F2E008080808080908090809080908090809003
:105F3E008080808080808080808080908090809023
:105F4E0080908090809080908090809080908090C3
:105F5E008080808080808080808080808080808033
:105F6E0080808080809080908090809080908090C3
:105F7E0080808080808080808080809080908090E3
:105F8E008090809080908090809080908090809083
:105F9E0080808080808080808080808080808080F3
:105FAE008080808080908090809080908090809083
:105FBE0080808080808080808080809080908090A3
:105FCE008090809080908090809080908090809043
:105FDE00000E026E000E016E02BE07D0E80E015CCE
:105FEE00030E0258D8B06FEF2BF08090014A022AB0
:025FFE00F3D7D7
:020000040020DA
:08000000FFFFFFFFFFFFFFFF00
:020000040030CA
:0E000000040E1F1EFF8181FF0FC00FE00F4096
:00000001FF
