:04000000C2EF2EF02D
:105D40008080808080808080808080808080808053
:105D500080808080809080908090809080908090E3
:105D60001200808080808080808080808090809001
:105D700080908090809080908090809080908090A3
:105D800080901200AA0EF66E5D0EF76E000EF86E91
:105D900000EE60F010EE30F00900F5CFEEFFE550B8
:105DA000E150FAE10001EDEF2EF0000001000000EB
:105DB00001000000010000000100000001000000DF
:105DC00001000000010000000100000001000000CF
:105DD00001000000010000000100000E926E000EA4
:105DE000936E000E946E8068816882680F0EC16E9B
:105DF000CD92CD9620EE60F010EE01F02F0EDBCFAD
:105E0000E3FFE806FCE2000E326E000E316E32BE99
:105E100008D0325005E10C0E315CD8B0E1D001D091
:105E2000DFD001500210D8A403D0B1EC2EF002D084
:105E3000A0EC2EF003500410D8A403D0B1EC2EF047
:105E400002D0A0EC2EF005500610D8A403D0B1EC7F
:105E50002EF002D0A0EC2EF007500810D8A403D0EA
:105E6000B1EC2EF002D0A0EC2EF009500A10D8A40C
:105E700003D0B1EC2EF002D0A0EC2EF00B500C10A1
:105E8000D8A403D0B1EC2EF002D0A0EC2EF00D502F
:105E90000E10D8A403D0B1EC2EF002D0A0EC2EF05E
:105EA0000F501010D8A403D0B1EC2EF002D0A0EC0B
:105EB0002EF011501210D8A403D0B1EC2EF002D065
:105EC000A0EC2EF013501410D8A403D0B1EC2EF097
:105ED00002D0A0EC2EF015501610D8A403D0B1ECCF
:105EE0002EF002D0A0EC2EF017501810D8A403D03A
:105EF000B1EC2EF002D0A0EC2EF019501A10D8A45C
:105F000003D0B1EC2EF002D0A0EC2EF01B501C10F0
:105F1000D8A403D0B1EC2EF002D0A0EC2EF01D508E
:105F20001E10D8A403D0B1EC2EF002D0A0EC2EF0BD
:105F30001F502010D8A403D0B1EC2EF002D0A0EC5A
:105F40002EF021502210D8A403D0B1EC2EF002D0B4
:105F5000A0EC2EF023502410D8A403D0B1EC2EF0E6
:105F600002D0A0EC2EF025502610D8A403D0B1EC1E
:105F70002EF002D0A0EC2EF027502810D8A403D089
:105F8000B1EC2EF002D0A0EC2EF029502A10D8A4AB
:105F900003D0B1EC2EF002D0A0EC2EF02B502C1040
:105FA000D8A403D0B1EC2EF002D0A0EC2EF02D50EE
:105FB0002E10D8A403D0B1EC2EF002D0A0EC2EF01D
:105FC0002F503010D8A403D0B1EC2EF002D0A0ECAA
:105FD0002EF0314A322A32BE24D7325001E11BD78B
:105FE000000E346E000E336E34BE06D0E80E335C05
:105FF000030E3458D8B007D78090334A342AF4D7E8
:020000040020DA
:08000000FFFFFFFFFFFFFFFF00
:020000040030CA
:0E000000040E1F1EFF8181FF0FC00FE00F4096
:00000001FF
