:0400000059EF2DF097
:105AB20000017EEF2DF08080808080808080808059
:105AC20080808080808080808080809080908090A4
:105AD2008090809080901200808080808080808082
:105AE2008080809080908090809080908090809044
:105AF20080908090809080901200000E926E000E36
:105B0200936E000E946E8068816882680F0EC16E7B
:105B1200CD92CD96000E0001E36F1E0EE26F000ED5
:105B22000001E56F000EE46F0001E2510001E45D47
:105B32000001E551800A016E0001E351800A01581B
:105B4200D8B01AD0600E016E000E026ED89000011D
:105B5200E435D96E0001E535DA6ED890D936DA36F9
:105B62000150D9260250DA22DE6ADE6ADE6ADD6A76
:105B72000001E44BE52BD8D7000E0001E96F000EBF
:105B8200E86F010E0001DC6F000EDD6F000EDE6FAC
:105B9200000EDF6FDCC0D8F0DDC0D9F0DEC0DAF075
:105BA200DFC0DBF0D8C001F0D9C002F0DAC003F0E8
:105BB200DBC004F00001D807000ED95BDA5BDB5BC7
:105BC20004BE07D004500310021039E10104D8B01A
:105BD20036D0600E016E000E026ED8900001E835DC
:105BE200D96E0001E935DA6ED890D936DA3601502D
:105BF200D9260250DA22D890DE36DE36DE36DE369E
:105C0200600E016E000E026ED8900001E835D96E6A
:105C12000001E935DA6ED890D936DA360150D92644
:105C22000250DA22DE2A000EDE22DE22DE22DCC072
:105C3200D8F0DDC0D9F0DEC0DAF0DFC0DBF0600EF4
:105C4200016E000E026ED8900001E835D96E000197
:105C5200E935DA6ED890D936DA360150D9260250B3
:105C6200DA22030EDBBE36D0030EDB5007E1DE285C
:105C7200FF0EDE58FF0EDE58D8A02CD0600E016E4B
:105C8200000E026ED8900001E835D96E0001E935A8
:105C9200DA6ED890D936DA360150D9260250DA2295
:105CA200DE6ADE6ADE6ADD6A0001E84BE92B00018A
:105CB200E2510001E85D0001E951800A016E000134
:105CC200E351800A0158D8A005D0000E0001E96F07
:105CD200000EE86F000E0001E76F000EE66F000194
:105CE200E7BF0AD00001E75106E11E0E0001E65DA2
:105CF200D8B070D101D06ED1600E016E000E026E6E
:105D0200D8900001E635D96E0001E735DA6ED890F9
:105D1200D936DA360150D9260250DA22DECFEAF03D
:105D2200DECFEBF0DECFECF0DECFEDF00001EAB13A
:105D320003D06DEC2DF002D05CEC2DF00001ED35BE
:105D4200ED33EC33EB33EA330001EAB103D06DEC0F
:105D52002DF002D05CEC2DF00001ED35ED33EC338B
:105D6200EB33EA330001EAB103D06DEC2DF002D03F
:105D72005CEC2DF00001ED35ED33EC33EB33EA331F
:105D82000001EAB103D06DEC2DF002D05CEC2DF0F5
:105D92000001ED35ED33EC33EB33EA330001EAB1C8
:105DA20003D06DEC2DF002D05CEC2DF00001ED354E
:105DB200ED33EC33EB33EA330001EAB103D06DEC9F
:105DC2002DF002D05CEC2DF00001ED35ED33EC331B
:105DD200EB33EA330001EAB103D06DEC2DF002D0CF
:105DE2005CEC2DF00001ED35ED33EC33EB33EA33AF
:105DF2000001EAB103D06DEC2DF002D05CEC2DF085
:105E02000001ED35ED33EC33EB33EA330001EAB157
:105E120003D06DEC2DF002D05CEC2DF00001ED35DD
:105E2200ED33EC33EB33EA330001EAB103D06DEC2E
:105E32002DF002D05CEC2DF00001ED35ED33EC33AA
:105E4200EB33EA330001EAB103D06DEC2DF002D05E
:105E52005CEC2DF00001ED35ED33EC33EB33EA333E
:105E62000001EAB103D06DEC2DF002D05CEC2DF014
:105E72000001ED35ED33EC33EB33EA330001EAB1E7
:105E820003D06DEC2DF002D05CEC2DF00001ED356D
:105E9200ED33EC33EB33EA330001EAB103D06DECBE
:105EA2002DF002D05CEC2DF00001ED35ED33EC333A
:105EB200EB33EA330001EAB103D06DEC2DF002D0EE
:105EC2005CEC2DF00001ED35ED33EC33EB33EA33CE
:105ED2000001EAB103D06DEC2DF002D05CEC2DF0A4
:105EE2000001ED35ED33EC33EB33EA330001EAB177
:105EF20003D06DEC2DF002D05CEC2DF00001ED35FD
:105F0200ED33EC33EB33EA330001EAB103D06DEC4D
:105F12002DF002D05CEC2DF00001ED35ED33EC33C9
:105F2200EB33EA330001EAB103D06DEC2DF002D07D
:105F32005CEC2DF00001ED35ED33EC33EB33EA335D
:105F42000001EAB103D06DEC2DF002D05CEC2DF033
:105F52000001ED35ED33EC33EB33EA330001EAB106
:105F620003D06DEC2DF002D05CEC2DF00001ED358C
:105F7200ED33EC33EB33EA330001EAB103D06DECDD
:105F82002DF002D05CEC2DF00001ED35ED33EC3359
:105F9200EB33EA330001EAB103D06DEC2DF002D00D
:105FA2005CEC2DF00001ED35ED33EC33EB33EA33ED
:105FB2000001EAB103D06DEC2DF002D05CEC2DF0C3
:105FC2000001E64BE72B0001E7BF96D60001E7513F
:105FD20001E18BD6000E0001E16F000EE06F0001BF
:105FE200E1BF08D0E80E0001E05D030E0001E159B7
:0E5FF200D8B0D8D580900001E04BE12BF0D75D
:020000040020DA
:08000000FFFFFFFFFFFFFFFF00
:020000040030CA
:0E000000040E1F1EFF8181FF0FC00FE00F4096
:00000001FF
