:0400000063EF2EF08C
:105C82008080808080808080808080808080808012
:105C920080808080809080908090809080908090A2
:105CA20012008080808080808080808080908090C0
:105CB2008090809080908090809080908090809062
:105CC20080901200EC0EF66E5C0EF76E000EF86E0F
:105CD20000EE60F010EE30F00900F5CFEEFFE55077
:105CE200E150FAE100018EEF2EF000000100000009
:105CF200010000000100000001000000010000009E
:105D0200010000000100000001000000010000008D
:105D120001000000010000000100000E926E000E62
:105D2200936E000E946E8068816882680F0EC16E59
:105D3200CD92CD9620EE60F010EE05F02F0EDBCF67
:105D4200E3FFE806FCE2000E3F6E000E406E000E1E
:105D5200416E000E426E010E3F26000E402241228D
:105D6200422242BE12D0425008E1560E3F5C550E0E
:105D72004058550E4158D8A008D0000E3F6E000E74
:105D8200406E000E416E000E426E3FC037F040C0C2
:105D920038F041C039F042C03AF0000E446E000EB5
:105DA200436E44BE06D044502DE1180E435CD8B079
:105DB20029D0010E3714356E366AD8904334D96E25
:105DC2004434DA6E050ED926000EDA2235C0DEFF23
:105DD20036C0DDFF37C001F038C002F039C003F031
:105DE2003AC004F00434043203320232013201C0F8
:105DF20037F002C038F003C039F004C03AF0434A29
:105E0200442ACFD7000E3C6E000E3B6E3CBE08D03B
:105E12003C5005E10C0E3B5CD8B0E1D001D0DFD0A4
:105E220005500610D8A403D052EC2EF002D041EC5B
:105E32002EF007500810D8A403D052EC2EF002D056
:105E420041EC2EF009500A10D8A403D052EC2EF0E7
:105E520002D041EC2EF00B500C10D8A403D052EC1F
:105E62002EF002D041EC2EF00D500E10D8A403D02B
:105E720052EC2EF002D041EC2EF00F501010D8A4AC
:105E820003D052EC2EF002D041EC2EF01150121041
:105E9200D8A403D052EC2EF002D041EC2EF01350D5
:105EA2001410D8A403D052EC2EF002D041EC2EF004
:105EB20015501610D8A403D052EC2EF002D041ECAB
:105EC2002EF017501810D8A403D052EC2EF002D0A6
:105ED20041EC2EF019501A10D8A403D052EC2EF037
:105EE20002D041EC2EF01B501C10D8A403D052EC6F
:105EF2002EF002D041EC2EF01D501E10D8A403D07B
:105F020052EC2EF002D041EC2EF01F502010D8A4FB
:105F120003D052EC2EF002D041EC2EF02150221090
:105F2200D8A403D052EC2EF002D041EC2EF0235034
:105F32002410D8A403D052EC2EF002D041EC2EF063
:105F420025502610D8A403D052EC2EF002D041ECFA
:105F52002EF027502810D8A403D052EC2EF002D0F5
:105F620041EC2EF029502A10D8A403D052EC2EF086
:105F720002D041EC2EF02B502C10D8A403D052ECBE
:105F82002EF002D041EC2EF02D502E10D8A403D0CA
:105F920052EC2EF002D041EC2EF02F503010D8A44B
:105FA20003D052EC2EF002D041EC2EF031503210E0
:105FB200D8A403D052EC2EF002D041EC2EF0335094
:105FC2003410D8A403D052EC2EF002D041EC2EF0C3
:105FD2003B4A3C2A3CBE24D73C5001E11BD7000E71
:105FE2003E6E000E3D6E3EBE06D0E80E3D5C030ED8
:0E5FF2003E58D8B0B0D680903D4A3E2AF4D733
:020000040020DA
:08000000FFFFFFFFFFFFFFFF00
:020000040030CA
:0E000000040E1F1EFF8181FF0FC00FE00F4096
:00000001FF
