:04000000A1EF2DF04F
:105B1E00000E056E000E046E02D0044A052A0150D6
:105B2E00045C0550800A036E0250800A0358D8B0F8
:105B3E001200F3D7800EF66E5D0EF76E000EF86E45
:105B4E0005EE80F012EE80F00900F5CFEEFFE55085
:105B5E00E150FAE1E250F8E10001DDEF2DF001C075
:105B6E0009F002C00AF0070ED89009360A36E82E60
:105B7E00FBD7800E0B6E050E0C6E09500B260A50CD
:105B8E000C22D8900534D96E0634DA6ED890D936F8
:105B9E00DA360B50D9260C50DA22DECF01F0DECFEA
:105BAE0002F0DECF03F0DECF04F01200000E926E94
:105BBE00000E936E000E946E8068816882680F0EE0
:105BCE00C16ECD92CD96000E0F6E010E0E6E030EAF
:105BDE001E6E000E1F6E000E206E000E216E000E49
:105BEE00126E000E136E000E146E000E156E000E69
:105BFE00166E000E176E000E186E000E196E16C081
:105C0E0001F017C002F018C003F019C004F012C062
:105C1E0005F013C006F014C007F015C008F0B6EC7E
:105C2E002DF001C01EF002C01FF003C020F004C012
:105C3E0021F0010E1226000E1322142215221550E9
:105C4E001410131004E1200E125CD8A00ED0000E1A
:105C5E00126E000E136E000E146E000E156E010EF7
:105C6E001626000E17221822192219501810171076
:105C7E0004E1040E165CD8A008D0000E166E000EBD
:105C8E00176E000E186E000E196E21C01AF020C08D
:105C9E001BF01FC01CF01EC01DF0000E116E000E7A
:105CAE00106E11BE06D0115055E1080E105CD8B022
:105CBE0051D01AC00DF0010E0D1680500D18FE0BAE
:105CCE000D18806E1BC00DF0010E0D160D46805086
:105CDE000D18FD0B0D18806E1CC00DF0010E0D166B
:105CEE000D460D4680500D18FB0B0D18806E1DC015
:105CFE000DF0010E0D160D460D460D4680500D1879
:105D0E00F70B0D18806E000E026E020E016E8FECF8
:105D1E002DF08088000E026E050E016E8FEC2DF0B8
:105D2E008098000E026E050E016E8FEC2DF0D8904D
:105D3E001A301A6ED8901B301B6ED8901C301C6E09
:105D4E00D8901D301D6E104A112A11BEB2D71150B7
:105D5E0001E1ABD7808A000E026E050E016E8FEC4C
:105D6E002DF0809A000E026E960E016E8FEC2DF0C5
:105D7E0046D700000000000000000080010000C0B7
:105D8E00030000E0070000F00F0000F81F0000FC09
:105D9E003F0000FE7F0000FFFF0080FFFF01C0FFFD
:105DAE00FF03E0FFFF0FF0FFFF1FF8FFFF3FFCFFB9
:105DBE00FF3FF0FFFF1FE0FFFF0FC0FFFF0380FF5D
:105DCE00FF010080010000C0030000E0070000F0AA
:105DDE000F0000F81F0000FC3F0000FE7F0000FFD8
:105DEE00FF000000000000000000000000000000A6
:105DFE000000000000000000000000000000000095
:105E0E000000000000000000000000000000000084
:105E1E0000000000000000000000FCFFFF3FFCFF40
:105E2E00FF3FFCFFFF3FFCFFFF3F7CC0033C7CC0FD
:105E3E00033C7CC0033C7CC0033C7CC0033C7CC068
:105E4E00033C7CC0033C7CC0033C7CC0033C000094
:105E5E000000000000000000000000000000000034
:105E6E000000000000000000000000000000000024
:105E7E000000000000000000000000000000000014
:105E8E0000000000000000000000FCFFFF3FFCFFD0
:105E9E00FF3FFCFFFF3FFCFFFF3F3CC003003CC049
:105EAE0003003CC003003CC003003CC003003CC0E8
:105EBE0003003CC00300FCFFFF3FFCFFFF3FFCFF65
:105ECE00FF3FFCFFFF3F000000000000000000004D
:105EDE0000000000000000000000000000000000B4
:105EEE0000000000000000000000000000000000A4
:105EFE00000000000000000000007C0000007C009C
:105F0E0000007C0000007C0000007C0000007C0093
:105F1E0000007C0000007C0000007C0000007C0083
:105F2E0000007C0000007C000000FCFFFF3FFCFF37
:105F3E00FF3FFCFFFF3FFCFFFF3FFCFFFF3F7C00EE
:105F4E0000007C0000007C0000007C0000007C0053
:105F5E0000007C0000007C0000007C0000007C0043
:105F6E0000007C0000007C0000000000000000002B
:105F7E00000000000000000000000080010000C0D2
:105F8E00030000E0070000F00F0000F81F0000FC07
:105F9E003F0000FE7F0000FFFF0080FFFF01C0FFFB
:105FAE00FF03E0FFFF0FF0FFFF1FF8FFFF3FFCFFB7
:105FBE00FF3FF0FFFF1FE0FFFF0FC0FFFF0380FF5B
:105FCE00FF0100FFFF0000FE7F0000FC3F0000F815
:105FDE001F0000F00F0000E0070000C0030000806B
:105FEE0001000000000000000000000000000000A2
:025FFE000000A1
:020000040020DA
:08000000FFFFFFFFFFFFFFFF00
:020000040030CA
:0E000000000C1F1EFF8181FF0FC00FE00F409C
:00000001FF
