:0400000099EF2EF056
:105CE800000E056E000E046E02D0044A052A01500B
:105CF800045C0550800A036E0250800A0358D8B02D
:105D08001200F3D701500302F3CF05F0F4CF06F0E9
:105D180001500402F350062602500302F3500626EF
:105D280005C001F006C002F01200A60EF66E5D0E68
:105D3800F76E000EF86E01EE00F010EEC0F00900EC
:105D4800F5CFEEFFE550E150FAE1000133EF2FF017
:105D580007C001F008C002F0000E046E300E036E9A
:105D680086EC2EF0000E0F6E010E106E01500F26FD
:105D780002501022D8900B34D96E0C34DA6ED890B9
:105D8800D936DA360F50D9261050DA22DECF07F08E
:105D9800DECF08F0DECF09F0DECF0AF01200FFFFF9
:105DA8000000FFFF0000FFFF0000FFFF000003C02E
:105DB800000003C0000003C0000003C0000003C0CF
:105DC800000003C0000003C00000FFFF0000FFFF49
:105DD8000000FFFE0000FFFE00007FFC00001FF037
:105DE8000000038000001FF000007FFC0000FFFEA1
:105DF8000000FFFE0000FFFF0000FFFF0000FFFFA4
:105E08000000FFFF00008FFF000003FC000001F00E
:105E1800000007C000000F80000007C0000001F06C
:105E2800000003FC00008FFF0000FFFF0000FFFFE1
:105E380000007FFE00003FFC00001FF800000FF08C
:105E4800000007E0000003C0000007E000000FF0BA
:105E580000001FF800003FFC00007FFE0000000E5D
:105E6800926E000E936E000E946E80688168826850
:105E78000F0EC16ECD92CD96000E136E010E126EEE
:105E8800030E156E000E166E000E176E000E186EBD
:105E9800000E1B6E000E1C6E000E1D6E000E1E6E98
:105EA800000E1F6E000E206E000E216E000E226E78
:105EB8001FC007F020C008F021C009F022C00AF076
:105EC8001BC00BF01CC00CF01DC00DF01EC00EF066
:105ED800ACEC2EF007C015F008C016F009C017F09A
:105EE8000AC018F0010E1B26000E1C221D221E22BD
:105EF8001E501D101C1004E10C0E1B5CD8A00ED007
:105F0800000E1B6E000E1C6E000E1D6E000E1E6E27
:105F1800010E1F26000E20222122222222502110AB
:105F2800201004E1040E1F5CD8A008D0000E1F6EDC
:105F3800000E206E000E216E000E226E16C024F098
:105F480015C023F02438E842070B070B146E000E27
:105F58001A6E000E196E1ABE06D01A503CE1080ED1
:105F6800195CD8B038D024C011F0010E1116805039
:105F78001118FE0B1118806E23C011F0010E1116B6
:105F880011461146114680501118F70B1118806EF2
:105F9800000E026E020E016E74EC2EF08082808874
:105FA800000E026E050E016E74EC2EF08092809841
:105FB800000E026E050E016E74EC2EF0D89024309F
:105FC800246ED8902330236E194A1A2A1ABECBD7CA
:105FD8001A5001E1C4D78084808A000E026E050E33
:105FE800016E74EC2EF08094809A010E026E2C0ED5
:085FF800016E74EC2EF05CD781
:020000040020DA
:08000000FFFFFFFFFFFFFFFF00
:020000040030CA
:0E000000000C1F1EFF8181FF0FC00FE00F409C
:00000001FF
