:040000009BEF2FF053
:105F36000001CEEF2FF0000E026E000E016E02BEC3
:105F460006D0100E015C270E0258D8B01200014A86
:105F5600022AF5D7076E0750D8B407D0D890073075
:105F6600076ED8900130016E02D0076801680750AD
:105F760001C005F0066A05C006F0056A0526000E92
:105F8600062205C001F006C002F0000E02BEFF0E9A
:105F9600036E046E1200000E926E000E936E000EDB
:105FA600946E8068816882680F0EC16ECD92CD9620
:105FB600000E816E000E806E0F0E816E81CF01F095
:105FC6008050ADEC2FF001C00AF002C00BF003C008
:105FD6000CF004C00DF00BC00EF00AC008F00E382D
:105FE600E842070B070B096E0EC080FF08C081FF51
:0A5FF60009C082FF9EEC2FF0E1D7F6
:020000040020DA
:08000000FFFFFFFFFFFFFFFF00
:020000040030CA
:0E000000000C1F1EFF8181FF0FC00FE00F409C
:00000001FF
