:040000004DEF2FF0A1
:105E9A0000015FEF2FF0000E026E000E016E02BECF
:105EAA0006D0100E015C270E0258D8B01200014A23
:105EBA00022AF5D7000E926E000E936E000E946EB3
:105ECA008068816882680F0EC16ECD92CD96000EF1
:105EDA000E6E010E0D6E030E106E000E116E000E88
:105EEA00126E000E136E10C001F011C002F012C043
:105EFA0003F013C004F00D0E056E000E066EA0EC42
:105F0A002FF001C010F002C011F003C012F004C05B
:105F1A0013F011C00BF010C00FF00F38E842070B56
:105F2A00070B0C6E0FC080FF0BC081FF0CC082FFF5
:105F3A0050EC2FF0D8D704500310021015E1040ECC
:105F4A00015CD8B011D0060E016E000E026E000E72
:105F5A00036E000E046E05C0D9FF06C0DAFF010EFB
:105F6A00DE6E000EDD6E17D00450031004E1C00E81
:105F7A00025CD8A010D005C0D9FF06C0DAFF000E17
:105F8A00DE6E000EDD6E000E016E600E026E000EF9
:105F9A00036E000E046E05C0D9FF06C0DAFFDE509C
:105FAA00DE10D8A416D001C007F002C008F003C062
:105FBA0009F004C00AF0D8900A32093208320732CE
:105FCA0007C001F008C002F009C003F00AC004F0DB
:105FDA0009D0D8900134016E0234026E0334036E84
:105FEA000434046E01C001F002C002F003C003F0E1
:065FFA0004C004F01200D7
:020000040020DA
:08000000FFFFFFFFFFFFFFFF00
:020000040030CA
:0E000000000C1F1EFF8181FF0FC00FE00F409C
:00000001FF
