:04000000E1EF2EF00E
:105D7800000E056E000E046E02D0044A052A01507A
:105D8800045C0550800A036E0250800A0358D8B09C
:105D98001200F3D701500302F3CF05F0F4CF06F059
:105DA80001500402F350062602500302F35006265F
:105DB80005C001F006C002F01200360EF66E5E0E47
:105DC800F76E000EF86E01EE00F010EEC0F009005C
:105DD800F5CFEEFFE550E150FAE100017BEF2FF03F
:105DE80007C001F008C002F0000E046E300E036E0A
:105DF800CEEC2EF0000E0F6E010E106E01500F2625
:105E080002501022D8900B34D96E0C34DA6ED89028
:105E1800D936DA360F50D9261050DA22DECF07F0FD
:105E2800DECF08F0DECF09F0DECF0AF01200FFFF68
:105E38000000FFFF0000FFFF0000FFFF000003C09D
:105E4800000003C0000003C0000003C0000003C03E
:105E5800000003C0000003C00000FFFF0000FFFFB8
:105E68000000FFFE0000FFFE00007FFC00001FF0A6
:105E78000000038000001FF000007FFC0000FFFE10
:105E88000000FFFE0000FFFF0000FFFF0000FFFF13
:105E98000000FFFF00008FFF000003FC000001F07E
:105EA800000007C000000F80000007C0000001F0DC
:105EB800000003FC00008FFF0000FFFF0000FFFF51
:105EC80000007FFE00003FFC00001FF800000FF0FC
:105ED800000007E0000003C0000007E000000FF02A
:105EE80000001FF800003FFC00007FFE0000000ECD
:105EF800926E000E936E000E946E806881688268C0
:105F08000F0EC16ECD92CD96000E126E010E116E5F
:105F1800030E156E000E166E000E176E000E186E2C
:105F2800000E1A6E000E1B6E000E1C6E000E1D6E0B
:105F3800000E1E6E000E1F6E000E206E000E216EEB
:105F48001EC007F01FC008F020C009F021C00AF0E9
:105F58001AC00BF01BC00CF01CC00DF01DC00EF0D9
:105F6800F4EC2EF007C015F008C016F009C017F0C1
:105F78000AC018F0010E1A26000E1B221C221D2230
:105F88001D501C101B1004E10C0E1A5CD8A00ED07A
:105F9800000E1A6E000E1B6E000E1C6E000E1D6E9B
:105FA800010E1E26000E1F22202221222150201021
:105FB8001F1004E1040E1E5CD8A008D0000E1E6E4F
:105FC800000E1F6E000E206E000E216E16C013F01C
:105FD80015C019F01938E842070B070B146E19C0E1
:105FE80080FF13C081FF14C082FF010E026EF40E01
:085FF800016EBCEC2EF0A4D7F1
:020000040020DA
:08000000FFFFFFFFFFFFFFFF00
:020000040030CA
:0E000000000C1F1EFF8181FF0FC00FE00F409C
:00000001FF
